{
  "_format": "hh-sol-artifact-1",
  "contractName": "Faucet",
  "sourceName": "contracts/Faucet.sol",
  "abi": [
    {
      "inputs": [
        {
          "internalType": "address",
          "name": "tokenAddress",
          "type": "address"
        }
      ],
      "stateMutability": "payable",
      "type": "constructor"
    },
    {
      "anonymous": false,
      "inputs": [
        {
          "indexed": true,
          "internalType": "address",
          "name": "form",
          "type": "address"
        },
        {
          "indexed": true,
          "internalType": "uint256",
          "name": "amount",
          "type": "uint256"
        }
      ],
      "name": "Deposit",
      "type": "event"
    },
    {
      "anonymous": false,
      "inputs": [
        {
          "indexed": true,
          "internalType": "address",
          "name": "previousOwner",
          "type": "address"
        },
        {
          "indexed": true,
          "internalType": "address",
          "name": "newOwner",
          "type": "address"
        }
      ],
      "name": "OwnershipTransferred",
      "type": "event"
    },
    {
      "anonymous": false,
      "inputs": [
        {
          "indexed": true,
          "internalType": "address",
          "name": "to",
          "type": "address"
        },
        {
          "indexed": false,
          "internalType": "uint256",
          "name": "value",
          "type": "uint256"
        }
      ],
      "name": "withdraw",
      "type": "event"
    },
    {
      "inputs": [],
      "name": "getBalance",
      "outputs": [
        {
          "internalType": "uint256",
          "name": "",
          "type": "uint256"
        }
      ],
      "stateMutability": "view",
      "type": "function"
    },
    {
      "inputs": [],
      "name": "locktime",
      "outputs": [
        {
          "internalType": "uint256",
          "name": "",
          "type": "uint256"
        }
      ],
      "stateMutability": "view",
      "type": "function"
    },
    {
      "inputs": [],
      "name": "owner",
      "outputs": [
        {
          "internalType": "address",
          "name": "",
          "type": "address"
        }
      ],
      "stateMutability": "view",
      "type": "function"
    },
    {
      "inputs": [],
      "name": "renounceOwnership",
      "outputs": [],
      "stateMutability": "nonpayable",
      "type": "function"
    },
    {
      "inputs": [],
      "name": "requesttoken",
      "outputs": [],
      "stateMutability": "nonpayable",
      "type": "function"
    },
    {
      "inputs": [
        {
          "internalType": "uint256",
          "name": "amount",
          "type": "uint256"
        }
      ],
      "name": "setLocktime",
      "outputs": [],
      "stateMutability": "nonpayable",
      "type": "function"
    },
    {
      "inputs": [
        {
          "internalType": "uint256",
          "name": "amount",
          "type": "uint256"
        }
      ],
      "name": "setWithdrawlAmount",
      "outputs": [],
      "stateMutability": "nonpayable",
      "type": "function"
    },
    {
      "inputs": [],
      "name": "token",
      "outputs": [
        {
          "internalType": "contract IERC20",
          "name": "",
          "type": "address"
        }
      ],
      "stateMutability": "view",
      "type": "function"
    },
    {
      "inputs": [
        {
          "internalType": "address",
          "name": "newOwner",
          "type": "address"
        }
      ],
      "name": "transferOwnership",
      "outputs": [],
      "stateMutability": "nonpayable",
      "type": "function"
    },
    {
      "inputs": [],
      "name": "withdrawss",
      "outputs": [],
      "stateMutability": "nonpayable",
      "type": "function"
    },
    {
      "inputs": [],
      "name": "withrawlAmount",
      "outputs": [
        {
          "internalType": "uint256",
          "name": "",
          "type": "uint256"
        }
      ],
      "stateMutability": "view",
      "type": "function"
    },
    {
      "stateMutability": "payable",
      "type": "receive"
    }
  ],
  "bytecode": "0x60806040526802b5e3af16b1880000600355603c600455604051620012373803806200123783398181016040528101906200003b91906200021a565b6200005b6200004f620000e460201b60201c565b620000ec60201b60201c565b80600260006101000a81548173ffffffffffffffffffffffffffffffffffffffff021916908373ffffffffffffffffffffffffffffffffffffffff16021790555033600160006101000a81548173ffffffffffffffffffffffffffffffffffffffff021916908373ffffffffffffffffffffffffffffffffffffffff160217905550506200024c565b600033905090565b60008060009054906101000a900473ffffffffffffffffffffffffffffffffffffffff169050816000806101000a81548173ffffffffffffffffffffffffffffffffffffffff021916908373ffffffffffffffffffffffffffffffffffffffff1602179055508173ffffffffffffffffffffffffffffffffffffffff168173ffffffffffffffffffffffffffffffffffffffff167f8be0079c531659141344cd1fd0a4f28419497f9722a3daafe3b4186f6b6457e060405160405180910390a35050565b600080fd5b600073ffffffffffffffffffffffffffffffffffffffff82169050919050565b6000620001e282620001b5565b9050919050565b620001f481620001d5565b81146200020057600080fd5b50565b6000815190506200021481620001e9565b92915050565b600060208284031215620002335762000232620001b0565b5b6000620002438482850162000203565b91505092915050565b610fdb806200025c6000396000f3fe6080604052600436106100a05760003560e01c80638da5cb5b116100645780638da5cb5b1461019d578063cf42d7b7146101c8578063f2fde38b146101df578063f464430014610208578063f67a858714610231578063fc0c546a1461025c576100eb565b806312065fe0146100f0578063301099a31461011b57806361c533b4146101445780636a0eacf31461016f578063715018a614610186576100eb565b366100eb57343373ffffffffffffffffffffffffffffffffffffffff167fe1fffcc4923d04b559f4d29a8bfc6cda04eb5b0d3c460751c2402c5c5cc9109c60405160405180910390a3005b600080fd5b3480156100fc57600080fd5b50610105610287565b60405161011291906109c3565b60405180910390f35b34801561012757600080fd5b50610142600480360381019061013d9190610a0f565b61032a565b005b34801561015057600080fd5b50610159610348565b60405161016691906109c3565b60405180910390f35b34801561017b57600080fd5b5061018461034e565b005b34801561019257600080fd5b5061019b610615565b005b3480156101a957600080fd5b506101b2610629565b6040516101bf9190610a7d565b60405180910390f35b3480156101d457600080fd5b506101dd610652565b005b3480156101eb57600080fd5b5061020660048036038101906102019190610ac4565b61078c565b005b34801561021457600080fd5b5061022f600480360381019061022a9190610a0f565b61080f565b005b34801561023d57600080fd5b50610246610834565b60405161025391906109c3565b60405180910390f35b34801561026857600080fd5b5061027161083a565b60405161027e9190610b50565b60405180910390f35b6000600260009054906101000a900473ffffffffffffffffffffffffffffffffffffffff1673ffffffffffffffffffffffffffffffffffffffff166370a08231306040518263ffffffff1660e01b81526004016102e49190610a7d565b602060405180830381865afa158015610301573d6000803e3d6000fd5b505050506040513d601f19601f820116820180604052508101906103259190610b80565b905090565b610332610860565b603c8161033f9190610bdc565b60048190555050565b60045481565b600073ffffffffffffffffffffffffffffffffffffffff163373ffffffffffffffffffffffffffffffffffffffff16036103bd576040517f08c379a00000000000000000000000000000000000000000000000000000000081526004016103b490610ca1565b60405180910390fd5b600354600260009054906101000a900473ffffffffffffffffffffffffffffffffffffffff1673ffffffffffffffffffffffffffffffffffffffff166370a08231306040518263ffffffff1660e01b815260040161041b9190610a7d565b602060405180830381865afa158015610438573d6000803e3d6000fd5b505050506040513d601f19601f8201168201806040525081019061045c9190610b80565b101561049d576040517f08c379a000000000000000000000000000000000000000000000000000000000815260040161049490610d33565b60405180910390fd5b600560003373ffffffffffffffffffffffffffffffffffffffff1673ffffffffffffffffffffffffffffffffffffffff1681526020019081526020016000205442101561051f576040517f08c379a000000000000000000000000000000000000000000000000000000000815260040161051690610dc5565b60405180910390fd5b6004544261052d9190610de5565b600560003373ffffffffffffffffffffffffffffffffffffffff1673ffffffffffffffffffffffffffffffffffffffff16815260200190815260200160002081905550600260009054906101000a900473ffffffffffffffffffffffffffffffffffffffff1673ffffffffffffffffffffffffffffffffffffffff1663a9059cbb336003546040518363ffffffff1660e01b81526004016105cf929190610e19565b6020604051808303816000875af11580156105ee573d6000803e3d6000fd5b505050506040513d601f19601f820116820180604052508101906106129190610e7a565b50565b61061d610860565b61062760006108de565b565b60008060009054906101000a900473ffffffffffffffffffffffffffffffffffffffff16905090565b61065a610860565b3373ffffffffffffffffffffffffffffffffffffffff167ff3fef3a3f44f9c277339b67d54f015748bd8d6b77a985b0ab6e71126b018c34a600260009054906101000a900473ffffffffffffffffffffffffffffffffffffffff1673ffffffffffffffffffffffffffffffffffffffff166370a08231306040518263ffffffff1660e01b81526004016106ed9190610a7d565b602060405180830381865afa15801561070a573d6000803e3d6000fd5b505050506040513d601f19601f8201168201806040525081019061072e9190610b80565b60405161073b91906109c3565b60405180910390a23373ffffffffffffffffffffffffffffffffffffffff166108fc479081150290604051600060405180830381858888f19350505050158015610789573d6000803e3d6000fd5b50565b610794610860565b600073ffffffffffffffffffffffffffffffffffffffff168173ffffffffffffffffffffffffffffffffffffffff1603610803576040517f08c379a00000000000000000000000000000000000000000000000000000000081526004016107fa90610f19565b60405180910390fd5b61080c816108de565b50565b610817610860565b670de0b6b3a76400008161082b9190610bdc565b60038190555050565b60035481565b600260009054906101000a900473ffffffffffffffffffffffffffffffffffffffff1681565b6108686109a2565b73ffffffffffffffffffffffffffffffffffffffff16610886610629565b73ffffffffffffffffffffffffffffffffffffffff16146108dc576040517f08c379a00000000000000000000000000000000000000000000000000000000081526004016108d390610f85565b60405180910390fd5b565b60008060009054906101000a900473ffffffffffffffffffffffffffffffffffffffff169050816000806101000a81548173ffffffffffffffffffffffffffffffffffffffff021916908373ffffffffffffffffffffffffffffffffffffffff1602179055508173ffffffffffffffffffffffffffffffffffffffff168173ffffffffffffffffffffffffffffffffffffffff167f8be0079c531659141344cd1fd0a4f28419497f9722a3daafe3b4186f6b6457e060405160405180910390a35050565b600033905090565b6000819050919050565b6109bd816109aa565b82525050565b60006020820190506109d860008301846109b4565b92915050565b600080fd5b6109ec816109aa565b81146109f757600080fd5b50565b600081359050610a09816109e3565b92915050565b600060208284031215610a2557610a246109de565b5b6000610a33848285016109fa565b91505092915050565b600073ffffffffffffffffffffffffffffffffffffffff82169050919050565b6000610a6782610a3c565b9050919050565b610a7781610a5c565b82525050565b6000602082019050610a926000830184610a6e565b92915050565b610aa181610a5c565b8114610aac57600080fd5b50565b600081359050610abe81610a98565b92915050565b600060208284031215610ada57610ad96109de565b5b6000610ae884828501610aaf565b91505092915050565b6000819050919050565b6000610b16610b11610b0c84610a3c565b610af1565b610a3c565b9050919050565b6000610b2882610afb565b9050919050565b6000610b3a82610b1d565b9050919050565b610b4a81610b2f565b82525050565b6000602082019050610b656000830184610b41565b92915050565b600081519050610b7a816109e3565b92915050565b600060208284031215610b9657610b956109de565b5b6000610ba484828501610b6b565b91505092915050565b7f4e487b7100000000000000000000000000000000000000000000000000000000600052601160045260246000fd5b6000610be7826109aa565b9150610bf2836109aa565b9250828202610c00816109aa565b91508282048414831517610c1757610c16610bad565b5b5092915050565b600082825260208201905092915050565b7f52657175657374206d757374206e6f74206f726967696e6174652066726f6d2060008201527f61207a65726f206163636f756e74000000000000000000000000000000000000602082015250565b6000610c8b602e83610c1e565b9150610c9682610c2f565b604082019050919050565b60006020820190508181036000830152610cba81610c7e565b9050919050565b7f496e73756666696369656e742062616c616e636520696e20666175636574206660008201527f6f722077697468647261776c2072657175657374000000000000000000000000602082015250565b6000610d1d603483610c1e565b9150610d2882610cc1565b604082019050919050565b60006020820190508181036000830152610d4c81610d10565b9050919050565b7f496e73756666696369656e742074696d6520656c61707365642073696e63652060008201527f6c61737420776974686472616c202d206c61737420616761696e206c61746572602082015250565b6000610daf604083610c1e565b9150610dba82610d53565b604082019050919050565b60006020820190508181036000830152610dde81610da2565b9050919050565b6000610df0826109aa565b9150610dfb836109aa565b9250828201905080821115610e1357610e12610bad565b5b92915050565b6000604082019050610e2e6000830185610a6e565b610e3b60208301846109b4565b9392505050565b60008115159050919050565b610e5781610e42565b8114610e6257600080fd5b50565b600081519050610e7481610e4e565b92915050565b600060208284031215610e9057610e8f6109de565b5b6000610e9e84828501610e65565b91505092915050565b7f4f776e61626c653a206e6577206f776e657220697320746865207a65726f206160008201527f6464726573730000000000000000000000000000000000000000000000000000602082015250565b6000610f03602683610c1e565b9150610f0e82610ea7565b604082019050919050565b60006020820190508181036000830152610f3281610ef6565b9050919050565b7f4f776e61626c653a2063616c6c6572206973206e6f7420746865206f776e6572600082015250565b6000610f6f602083610c1e565b9150610f7a82610f39565b602082019050919050565b60006020820190508181036000830152610f9e81610f62565b905091905056fea2646970667358221220de5ce79b69368cae04f5668e6e24fa91208d89c569d7529cb6b1589e42bec76664736f6c63430008120033",
  "linkReferences": {},
  "deployedLinkReferences": {}
}